S01700004763634170706C69636174696F6E382E7372656354
S11300000C9434000C9451000C9451000C94510045
S11300100C9451000C9451000C9451000C94510018
S11300200C9451000C9451000C9451000C94AF01A9
S11300300C9451000C9451000C9451000C945100F8
S11300400C9451000C9451000C9451000C945100E8
S11300500C9451000C9451000C9451000C945100D8
S11300600C9451000C94510011241FBECFEFD8E022
S1130070DEBFCDBF11E0A0E0B1E0E0EBF5E002C0EF
S113008005900D92A433B107D9F721E0A4E3B1E0C0
S113009001C01D92A034B207E1F70E947B010C94C9
S11300A0D6020C940000FC01662349F1908187B5C7
S11300B0981308C0569A84B5836884BD85B5816059
S11300C085BD0895908188B5981308C0559A84B564
S11300D0836284BD85B5816085BD089590818091DA
S11300E0B400981327C0539AE0EBF0E08081836258
S11300F08083E1EBF0E080818160808308959081CA
S113010087B5981304C0569884B58F7784BD9081C1
S113011088B5981304C0559884B58F7D84BD9081AB
S11301208091B400981306C05398E0EBF0E080810E
S11301308F7D80830895CF93DF93EC01FC01EE0F54
S1130140FF1FEE0FFF1FE80FF91FE050FF4FA381C1
S1130150B4819C918281981778F4FE01EE0FFF1F01
S1130160EE0FFF1FEC0FFD1FE050FF4FCD01019676
S1130170948383838C9111C09C91981770F4FE0131
S1130180EE0FFF1FEE0FFF1FEC0FFD1FE050FF4FA0
S1130190CD010197948383838C91FE01EE0FFF1FA1
S11301A0EE0FFF1FEC0FFD1FE050FF4F0380F481A3
S11301B0E02D8081811104C060E0CF010E945300D2
S11301C0CE01880F991F880F991FC80FD91FC050DF
S11301D0DF4FEB81FC818081882321F061E0CF0136
S11301E00E945300DF91CF910895CF92DF92EF9256
S11301F0FF920F931F93CF93DF930E94870290E0A7
S113020090933F0180933E010E94770290E0909387
S11302103D0180933C011092330110923201C0E001
S1130220D1E009E010E00F2EF4EBEF2EF12CF02DCD
S1130230CC24C394D12CFE018DA590E020913E01E5
S113024030913F018217930751F48EA590E02091DD
S11302503C0130913D012817390720F43CC0821736
S11302609307C8F500A8F1A9E02D908187B59813EC
S11302700EC08091380190913901892B41F4C80155
S11302800E949B00D0923901C092380124C0908111
S113029088B598130EC080913A0190913B01892B47
S11302A041F4C8010E949B00D0923B01C0923A01E4
S11302B012C09081F701808198130DC0809136019E
S11302C090913701892B39F4C8010E949B00D09288
S11302D03701C09236010150110925970115110506
S11302E009F0A9CFDF91CF911F910F91FF90EF906B
S11302F0DF90CF90089560E875E280E090E00E947E
S1130300970260EA76E881E090E00E94D7018FE1ED
S11303109EEF90938700809386009093890080934A
S11303208800259AEFE6F0E0808182608083E1E82E
S1130330F0E080818D61808378942FEF89E698E1E5
S1130340215080409040E1F700C0000080913201CC
S113035090913301892B89F30E94F500EECF1F920F
S11303600F920FB60F9211248F939F9380913401B3
S113037090913501039754F48091340190913501A3
S1130380019690933501809334010AC0109235018F
S11303901092340181E090E0909333018093320114
S11303A09F918F910F900FBE0F901F9018959B01F6
S11303B0AC01220F331F441F551F60E074E284EF29
S11303C090E00E94B40228502093B800089594EA63
S11303D09093BC00ECEBF0E090819923ECF79091C2
S11303E0B900987F983029F09091B900987F9031A6
S11303F0F9F4611102C0880F04C0613011F4880F50
S113040081608093BB0084E88093BC00ECEBF0E057
S113041080818823ECF78091B900887F883151F07E
S11304209091B900987F81E0903429F480E0089598
S113043081E0089580E008958093BB0084E8809370
S1130440BC00ECEBF0E080818823ECF79091B900DC
S1130450987F81E0983209F480E00895811104C006
S113046094EC9093BC0005C0813019F494E8909307
S1130470BC00ECEBF0E090819923ECF7811106C00D
S11304808091B900887F803559F407C0813029F400
S11304908091B900887F883529F48091BB00089544
S11304A081E0089581E0089584E98093BC00ECEB39
S11304B0F0E0808184FDFDCF0895CF93DF93C82FB2
S11304C0D62F60E00E94E7018D2F0E941C020E943B
S11304D0540261E08C2F0E94E70181E00E942E0209
S11304E0C82F0E9454028C2FDF91CF91089561E0B0
S11304F088E60E945D02982F90779695969596953A
S1130500292F220F220F920F8F70890F089562E016
S113051088E60E945D02982F90739695969596951D
S1130520292F220F220F920F8F70890F08959B019C
S1130530AC0188E18093C10086E08093C20060E44E
S113054072E48FE090E00E94B402DA01C9010197DD
S1130550A109B109892F9A2FAB2FBB278093C5001E
S113056021502093C4000895A1E21A2EAA1BBB1B9C
S1130570FD010DC0AA1FBB1FEE1FFF1FA217B3076B
S1130580E407F50720F0A21BB30BE40BF50B661F81
S1130590771F881F991F1A9469F760957095809545
S11305A090959B01AC01BD01CF010895F894FFCF54
S11305B0092DC847000937C848000C00FA47000C49
S11305C000DC48000D1EC847000D1E00480010370F
S11305D07847001037C8B40013050047001305001E
S10705E0B40001005E
S9030000FC
