S01700004763634170706C69636174696F6E382E7372656354
S11300000C9434000C9451000C9451000C94510045
S11300100C9451000C9451000C945A020C9451000D
S11300200C9451000C9451000C9451000C94320225
S11300300C9451000C9451000C9451000C945100F8
S11300400C9451000C9451000C9451000C945100E8
S11300500C9451000C9451000C9451000C945100D8
S11300600C9451000C94510011241FBECFEFD8E022
S1130070DEBFCDBF11E0A0E0B1E0E8E4F7E002C0EC
S113008005900D92AE33B107D9F721E0AEE3B1E0AC
S113009001C01D92A834B207E1F70E949D010C949F
S11300A0A2030C94000080913A0190913B01892BAA
S11300B061F0559A5E9884B5836284BD85B581608C
S11300C085BD10923B0110923A0188B5843F18F423
S11300D088B58F5F88BD089580913A0190913B0166
S11300E0892B41F015BC14BC559A5D9A10923B01C2
S11300F010923A01089580913A0190913B01892B25
S113010091F08AB180668AB98BB18BB984B5836A60
S113011084BD85B5816085BD17BC8EEF88BD109206
S11301203B0110923A0188B58D3318F088B581509F
S113013088BD87B58E3F18F487B58F5F87BD089556
S113014080913A0190913B01892B99F08AB18066A4
S11301508AB98BB18BB98CE388BD8EEF87BD84B52A
S1130160836A84BD85B5816085BD10923B01109280
S11301703A0188B5882319F088B5815088BD5E9A04
S1130180089580913A0190913B01892B01F18AB144
S113019088648AB955985E98E0EBF0E080818362C8
S11301A08083E1EBF0E080818160808384B58368A3
S11301B084BD84B58F7D84BD85B5816085BD8EEF9A
S11301C087BD1092B40010923B0110923A018091C5
S11301D0B400803528F4E4EBF0E080818F5F808305
S11301E087B5853B28F0E4EBF0E080818150808383
S11301F0089580913A0190913B01892BF1F08AB1E5
S113020088648AB955985E98E0EBF0E08081836257
S11302108083E1EBF0E080818160808384B5836832
S113022084BD85B5816085BD86E987BD82E3809301
S1130230B40010923B0110923A0187B5853618F04C
S113024087B5815087BD8091B4008A3A28F4E4EBE5
S1130250F0E080818F5F8083089587B5882319F04B
S113026087B5815087BD8091B400882329F0E4EBE1
S1130270F0E080818150808308950E94530390E0D0
S113028090934701809346010E94430390E090932A
S113029045018093440110923D0110923C0160910C
S11302A0460170914701E0E0F1E026E030E040A92A
S11302B051A94617570731F442A953A98417950742
S11302C028F103C04617570708F580913E01909125
S11302D03F012817390701F130933F0120933E0174
S11302E081E090E090933B0180933A01220F331F09
S11302F0220F331F220F331FF901E050FF4F868175
S113030097819093390180933801089521503109E0
S113031038972115310559F60895F89484B7877FE5
S113032084BFE0E6F0E080818861808381E280839D
S11303308081806480837894089560E875E280E029
S113034090E00E94630360EA76E881E090E00E9416
S1130350A3028FE19EEF9093870080938600909391
S113036089008093880078940F2EF4E6EF2EF12C08
S1130370F02D0F2EF0E6CF2ED12CF02D0FE610E04D
S1130380C1E8D0E02FEF83EC99E021508040904009
S1130390E1F700C0000080913C0190913D01892B60
S11303A039F00E943D01E0913801F091390109953D
S11303B0E0913E01F0913F01EE0FFF1FEE0FFF1F92
S11303C0EE0FFF1FE050FF4F84819581892BE1F0F0
S11303D0F894F80180818260808388818D618883AC
S11303E0789483B7817F83BF83B7816083BF889507
S11303F083B78E7F83BFF89480818D7F80838881CB
S11304008E7F88837894BECFE0913801F0913901D2
S11304100995FFEF23EC89E0F15020408040E1F79B
S113042000C000000E948D0183B7817F846083BF78
S113043083B7816083BF889583B78E7F83BF83B77B
S11304408E7F83BFF701808180718083F6011082E3
S1130450FFEF25EA8EE0F15020408040E1F700C034
S1130460000090CF1F920F920FB60F9211248F931A
S11304709F938091400190914101039754F480919E
S11304804001909141010196909341018093400174
S11304900AC0109241011092400181E090E09093D3
S11304A03D0180933C019F918F910F900FBE0F905F
S11304B01F9018951F920F920FB60F9211242F932D
S11304C03F934F935F936F937F938F939F93AF93D8
S11304D0BF93EF93FF938091420190914301019662
S11304E09093430180934201809142019091430192
S11304F002975CF0109243011092420181E090E077
S113050090933D0180933C010DC00E948D0183B7FF
S1130510817F846083BF83B7816083BF889583B7FD
S11305208E7F83BFFF91EF91BF91AF919F918F9188
S11305307F916F915F914F913F912F910F900FBEDB
S11305400F901F9018959B01AC01220F331F441F7D
S1130550551F60E074E284EF90E00E94800328500D
S11305602093B800089594EA9093BC00ECEBF0E07B
S113057090819923ECF79091B900987F983029F0F5
S11305809091B900987F9031F9F4611102C0880FFD
S113059004C0613011F4880F81608093BB0084E84B
S11305A08093BC00ECEBF0E080818823ECF7809131
S11305B0B900887F883151F09091B900987F81E02B
S11305C0903429F480E0089581E0089580E008954E
S11305D08093BB0084E88093BC00ECEBF0E0808166
S11305E08823ECF79091B900987F81E0983209F460
S11305F080E00895811104C094EC9093BC0005C080
S1130600813019F494E89093BC00ECEBF0E0908115
S11306109923ECF7811106C08091B900887F803559
S113062059F407C0813029F48091B900887F883556
S113063029F48091BB00089581E0089581E0089534
S113064084E98093BC00ECEBF0E0808184FDFDCF75
S11306500895CF93DF93C82FD62F60E00E94B30292
S11306608D2F0E94E8020E94200361E08C2F0E94DB
S1130670B30281E00E94FA02C82F0E9420038C2F4B
S1130680DF91CF91089561E088E60E942903982FB5
S11306909077969596959695292F220F220F920F73
S11306A08F70890F089562E088E60E942903982FCD
S11306B09073969596959695292F220F220F920F57
S11306C08F70890F08959B01AC0188E18093C1006C
S11306D086E08093C20060E472E48FE090E00E94C0
S11306E08003DA01C9010197A109B109892F9A2F61
S11306F0AB2FBB278093C50021502093C4000895DD
S1130700A1E21A2EAA1BBB1BFD010DC0AA1FBB1F11
S1130710EE1FFF1FA217B307E407F50720F0A21B83
S1130720B30BE40BF50B661F771F881F991F1A94F0
S113073069F760957095809590959B01AC01BD011A
S10B0740CF010895F894FFCFE6
S113074808002D00010053000A00040000006C009A
S11307580C00010001007B00100026000100A0002D
S113076811000A000100C10012002D000100F90067
S111077814000A0001002D01530001000100CD
S9030000FC
